{
  "contractName": "EmergencyStop",
  "abi": [
    {
      "constant": false,
      "inputs": [],
      "name": "stopContract",
      "outputs": [],
      "payable": false,
      "stateMutability": "nonpayable",
      "type": "function"
    },
    {
      "constant": false,
      "inputs": [],
      "name": "resumeContract",
      "outputs": [],
      "payable": false,
      "stateMutability": "nonpayable",
      "type": "function"
    },
    {
      "constant": false,
      "inputs": [],
      "name": "deposit",
      "outputs": [],
      "payable": true,
      "stateMutability": "payable",
      "type": "function"
    },
    {
      "constant": true,
      "inputs": [],
      "name": "emergencyWithdraw",
      "outputs": [],
      "payable": false,
      "stateMutability": "view",
      "type": "function"
    },
    {
      "constant": false,
      "inputs": [],
      "name": "kill",
      "outputs": [],
      "payable": false,
      "stateMutability": "nonpayable",
      "type": "function"
    }
  ],
  "bytecode": "0x608060405260008060146101000a81548160ff021916908315150217905550336000806101000a81548173ffffffffffffffffffffffffffffffffffffffff021916908373ffffffffffffffffffffffffffffffffffffffff1602179055506102098061006d6000396000f3fe60806040526004361061006d576000357c0100000000000000000000000000000000000000000000000000000000900463ffffffff16806312253a6c1461007257806341c0e1b514610089578063c4bc5da5146100a0578063d0e30db0146100b7578063db2e21bc146100c1575b600080fd5b34801561007e57600080fd5b506100876100d8565b005b34801561009557600080fd5b5061009e6100f5565b005b3480156100ac57600080fd5b506100b5610186565b005b6100bf6101a2565b005b3480156100cd57600080fd5b506100d66101c0565b005b6001600060146101000a81548160ff021916908315150217905550565b6000809054906101000a900473ffffffffffffffffffffffffffffffffffffffff1673ffffffffffffffffffffffffffffffffffffffff163373ffffffffffffffffffffffffffffffffffffffff161415610184576000809054906101000a900473ffffffffffffffffffffffffffffffffffffffff1673ffffffffffffffffffffffffffffffffffffffff16ff5b565b60008060146101000a81548160ff021916908315150217905550565b600060149054906101000a900460ff161515156101be57600080fd5b565b600060149054906101000a900460ff1615156101db57600080fd5b56fea165627a7a7230582063c19b6ccab27d5f0e2243d91b5bd40eb76ff3c447224b49052371194927b04c0029",
  "source": "pragma solidity ^0.5.0;\n\nimport \"./Ownable.sol\";\n\ncontract EmergencyStop is Ownable {\n\n    bool isStopped = false;\n\n    modifier stoppedInEmergency {\n        require(!isStopped);\n        _;\n    }\n\n    modifier onlyWhenStopped {\n        require(isStopped);\n        _;\n    }\n\n    modifier onlyAuthorized {\n        // Check for authorization of msg.sender here\n        _;\n    }\n\n    function stopContract() public onlyAuthorized {\n        isStopped = true;\n    }\n\n    function resumeContract() public onlyAuthorized {\n        isStopped = false;\n    }\n\n    function deposit() public payable stoppedInEmergency {\n        // Deposit logic happening here\n    }\n\n    function emergencyWithdraw() public view onlyWhenStopped {\n        // Emergency withdraw happening here\n    }\n    \n    function kill() public {\n        if (msg.sender == owner) selfdestruct(owner);\n    }\n}",
  "sourcePath": "/Users/kenny/Documents/project/brexit/contracts/EmergencyStop.sol",
  "compiler": {
    "name": "solc",
    "version": "0.5.0+commit.1d4f565a.Emscripten.clang"
  },
  "schemaVersion": "3.0.0",
  "updatedAt": "2019-01-24T09:12:14.348Z",
  "devdoc": {
    "methods": {}
  },
  "userdoc": {
    "methods": {}
  }
}