{
  "contractName": "Referendum",
  "abi": [
    {
      "constant": true,
      "inputs": [],
      "name": "name",
      "outputs": [
        {
          "name": "",
          "type": "string"
        }
      ],
      "payable": false,
      "stateMutability": "view",
      "type": "function",
      "signature": "0x06fdde03"
    },
    {
      "constant": false,
      "inputs": [],
      "name": "stopContract",
      "outputs": [],
      "payable": false,
      "stateMutability": "nonpayable",
      "type": "function",
      "signature": "0x12253a6c"
    },
    {
      "constant": true,
      "inputs": [
        {
          "name": "",
          "type": "uint256"
        }
      ],
      "name": "candidates",
      "outputs": [
        {
          "name": "name",
          "type": "string"
        },
        {
          "name": "voteCount",
          "type": "uint256"
        }
      ],
      "payable": false,
      "stateMutability": "view",
      "type": "function",
      "signature": "0x3477ee2e"
    },
    {
      "constant": false,
      "inputs": [],
      "name": "kill",
      "outputs": [],
      "payable": false,
      "stateMutability": "nonpayable",
      "type": "function",
      "signature": "0x41c0e1b5"
    },
    {
      "constant": true,
      "inputs": [],
      "name": "owner",
      "outputs": [
        {
          "name": "",
          "type": "address"
        }
      ],
      "payable": false,
      "stateMutability": "view",
      "type": "function",
      "signature": "0x8da5cb5b"
    },
    {
      "constant": true,
      "inputs": [
        {
          "name": "",
          "type": "address"
        }
      ],
      "name": "voters",
      "outputs": [
        {
          "name": "voted",
          "type": "bool"
        },
        {
          "name": "voteIndex",
          "type": "uint256"
        },
        {
          "name": "candidatesID",
          "type": "uint256"
        }
      ],
      "payable": false,
      "stateMutability": "view",
      "type": "function",
      "signature": "0xa3ec138d"
    },
    {
      "constant": false,
      "inputs": [],
      "name": "resumeContract",
      "outputs": [],
      "payable": false,
      "stateMutability": "nonpayable",
      "type": "function",
      "signature": "0xc4bc5da5"
    },
    {
      "constant": false,
      "inputs": [],
      "name": "deposit",
      "outputs": [],
      "payable": true,
      "stateMutability": "payable",
      "type": "function",
      "signature": "0xd0e30db0"
    },
    {
      "constant": true,
      "inputs": [],
      "name": "emergencyWithdraw",
      "outputs": [],
      "payable": false,
      "stateMutability": "view",
      "type": "function",
      "signature": "0xdb2e21bc"
    },
    {
      "inputs": [
        {
          "name": "_name",
          "type": "string"
        },
        {
          "name": "candidate1",
          "type": "string"
        },
        {
          "name": "candidate2",
          "type": "string"
        }
      ],
      "payable": false,
      "stateMutability": "nonpayable",
      "type": "constructor",
      "signature": "constructor"
    },
    {
      "anonymous": false,
      "inputs": [
        {
          "indexed": false,
          "name": "name",
          "type": "string"
        },
        {
          "indexed": false,
          "name": "voteCount",
          "type": "uint256"
        }
      ],
      "name": "ReferendumResult",
      "type": "event",
      "signature": "0x6aa1f56ab57a649e2bff17a1af92d994107a6a04b63fe9eba12e5d1291682d78"
    },
    {
      "constant": false,
      "inputs": [
        {
          "name": "voteIndex",
          "type": "uint256"
        },
        {
          "name": "candidatesID",
          "type": "uint256"
        }
      ],
      "name": "vote",
      "outputs": [],
      "payable": false,
      "stateMutability": "nonpayable",
      "type": "function",
      "signature": "0xb384abef"
    }
  ],
  "bytecode": "0x608060405260008060146101000a81548160ff0219169083151502179055503480156200002b57600080fd5b5060405162000bdb38038062000bdb833981018060405260608110156200005157600080fd5b8101908080516401000000008111156200006a57600080fd5b828101905060208101848111156200008157600080fd5b81518560018202830111640100000000821117156200009f57600080fd5b50509291906020018051640100000000811115620000bc57600080fd5b82810190506020810184811115620000d357600080fd5b8151856001820283011164010000000082111715620000f157600080fd5b505092919060200180516401000000008111156200010e57600080fd5b828101905060208101848111156200012557600080fd5b81518560018202830111640100000000821117156200014357600080fd5b5050929190505050336000806101000a81548173ffffffffffffffffffffffffffffffffffffffff021916908373ffffffffffffffffffffffffffffffffffffffff16021790555033600160006101000a81548173ffffffffffffffffffffffffffffffffffffffff021916908373ffffffffffffffffffffffffffffffffffffffff1602179055508260029080519060200190620001e4929190620002cc565b506004604080519081016040528084815260200160008152509080600181540180825580915050906001820390600052602060002090600202016000909192909190915060008201518160000190805190602001906200024692919062000353565b5060208201518160010155505050600460408051908101604052808381526020016000815250908060018154018082558091505090600182039060005260206000209060020201600090919290919091506000820151816000019080519060200190620002b592919062000353565b506020820151816001015550505050505062000402565b828054600181600116156101000203166002900490600052602060002090601f016020900481019282601f106200030f57805160ff191683800117855562000340565b8280016001018555821562000340579182015b828111156200033f57825182559160200191906001019062000322565b5b5090506200034f9190620003da565b5090565b828054600181600116156101000203166002900490600052602060002090601f016020900481019282601f106200039657805160ff1916838001178555620003c7565b82800160010185558215620003c7579182015b82811115620003c6578251825591602001919060010190620003a9565b5b509050620003d69190620003da565b5090565b620003ff91905b80821115620003fb576000816000905550600101620003e1565b5090565b90565b6107c980620004126000396000f3fe6080604052600436106100a4576000357c0100000000000000000000000000000000000000000000000000000000900463ffffffff16806306fdde03146100a957806312253a6c146101395780633477ee2e1461015057806341c0e1b51461020b5780638da5cb5b14610222578063a3ec138d14610279578063b384abef146102f0578063c4bc5da514610335578063d0e30db01461034c578063db2e21bc14610356575b600080fd5b3480156100b557600080fd5b506100be61036d565b6040518080602001828103825283818151815260200191508051906020019080838360005b838110156100fe5780820151818401526020810190506100e3565b50505050905090810190601f16801561012b5780820380516001836020036101000a031916815260200191505b509250505060405180910390f35b34801561014557600080fd5b5061014e61040b565b005b34801561015c57600080fd5b506101896004803603602081101561017357600080fd5b8101908080359060200190929190505050610428565b6040518080602001838152602001828103825284818151815260200191508051906020019080838360005b838110156101cf5780820151818401526020810190506101b4565b50505050905090810190601f1680156101fc5780820380516001836020036101000a031916815260200191505b50935050505060405180910390f35b34801561021757600080fd5b506102206104f3565b005b34801561022e57600080fd5b50610237610584565b604051808273ffffffffffffffffffffffffffffffffffffffff1673ffffffffffffffffffffffffffffffffffffffff16815260200191505060405180910390f35b34801561028557600080fd5b506102c86004803603602081101561029c57600080fd5b81019080803573ffffffffffffffffffffffffffffffffffffffff1690602001909291905050506105aa565b6040518084151515158152602001838152602001828152602001935050505060405180910390f35b3480156102fc57600080fd5b506103336004803603604081101561031357600080fd5b8101908080359060200190929190803590602001909291905050506105e1565b005b34801561034157600080fd5b5061034a610746565b005b610354610762565b005b34801561036257600080fd5b5061036b610780565b005b60028054600181600116156101000203166002900480601f0160208091040260200160405190810160405280929190818152602001828054600181600116156101000203166002900480156104035780601f106103d857610100808354040283529160200191610403565b820191906000526020600020905b8154815290600101906020018083116103e657829003601f168201915b505050505081565b6001600060146101000a81548160ff021916908315150217905550565b60048181548110151561043757fe5b9060005260206000209060020201600091509050806000018054600181600116156101000203166002900480601f0160208091040260200160405190810160405280929190818152602001828054600181600116156101000203166002900480156104e35780601f106104b8576101008083540402835291602001916104e3565b820191906000526020600020905b8154815290600101906020018083116104c657829003601f168201915b5050505050908060010154905082565b6000809054906101000a900473ffffffffffffffffffffffffffffffffffffffff1673ffffffffffffffffffffffffffffffffffffffff163373ffffffffffffffffffffffffffffffffffffffff161415610582576000809054906101000a900473ffffffffffffffffffffffffffffffffffffffff1673ffffffffffffffffffffffffffffffffffffffff16ff5b565b600160009054906101000a900473ffffffffffffffffffffffffffffffffffffffff1681565b60036020528060005260406000206000915090508060000160009054906101000a900460ff16908060010154908060020154905083565b600060149054906101000a900460ff161515156105fd57600080fd5b600360003373ffffffffffffffffffffffffffffffffffffffff1673ffffffffffffffffffffffffffffffffffffffff16815260200190815260200160002060000160009054906101000a900460ff1615151561065957600080fd5b6001600360003373ffffffffffffffffffffffffffffffffffffffff1673ffffffffffffffffffffffffffffffffffffffff16815260200190815260200160002060000160006101000a81548160ff02191690831515021790555081600360003373ffffffffffffffffffffffffffffffffffffffff1673ffffffffffffffffffffffffffffffffffffffff1681526020019081526020016000206001018190555080600360003373ffffffffffffffffffffffffffffffffffffffff1673ffffffffffffffffffffffffffffffffffffffff168152602001908152602001600020600201819055505050565b60008060146101000a81548160ff021916908315150217905550565b600060149054906101000a900460ff1615151561077e57600080fd5b565b600060149054906101000a900460ff16151561079b57600080fd5b56fea165627a7a7230582056e657b28ea20afcc3c4a14c8c70c9cbdcd28ed58ee0432e1be8684feab0073d0029",
  "source": "pragma solidity ^0.5.0;\n\n//import \"./Ownable.sol\";\nimport \"./EmergencyStop.sol\";\n\ncontract Referendum is EmergencyStop {\n    \n    struct Candidate {\n        string name;\n        uint voteCount;\n    }\n    \n    struct Voter {\n        bool voted;\n        uint voteIndex;\n        uint candidatesID;\n    }\n    \n    address public owner;\n    string public name;\n    mapping(address => Voter) public voters;\n    Candidate[] public candidates;\n    \n    event ReferendumResult(string name, uint voteCount);\n    \n    constructor (string memory _name,string memory candidate1, string memory candidate2) public {\n        owner = msg.sender;\n        name = _name;\n            \n        candidates.push(Candidate(candidate1, 0));\n        candidates.push(Candidate(candidate2, 0));\n    }\n    \n    function vote(uint voteIndex, uint candidatesID) public stoppedInEmergency {\n        require(!voters[msg.sender].voted);\n        \n        voters[msg.sender].voted = true;\n        voters[msg.sender].voteIndex = voteIndex;\n        voters[msg.sender].candidatesID = candidatesID;\n    }\n}\n",
  "sourcePath": "/Users/kenny/Documents/project/brexit/contracts/Referendum.sol",
  "compiler": {
    "name": "solc",
    "version": "0.5.0+commit.1d4f565a.Emscripten.clang"
  },
  "schemaVersion": "3.0.0",
  "updatedAt": "2019-01-24T09:12:35.816Z",
  "devdoc": {
    "methods": {}
  },
  "userdoc": {
    "methods": {}
  }
}